{
  "address": "0xcF78E38A7309FBECF3d670e8091c4e7E51620A1f",
  "abi": [
    {
      "inputs": [
        {
          "internalType": "contract AcrossMerkleDistributorInterface",
          "name": "_merkleDistributor",
          "type": "address"
        },
        {
          "internalType": "contract AcceleratingDistributorInterface",
          "name": "_acceleratingDistributor",
          "type": "address"
        }
      ],
      "stateMutability": "nonpayable",
      "type": "constructor"
    },
    {
      "anonymous": false,
      "inputs": [
        {
          "indexed": true,
          "internalType": "address",
          "name": "previousOwner",
          "type": "address"
        },
        {
          "indexed": true,
          "internalType": "address",
          "name": "newOwner",
          "type": "address"
        }
      ],
      "name": "OwnershipTransferred",
      "type": "event"
    },
    {
      "inputs": [],
      "name": "acceleratingDistributor",
      "outputs": [
        {
          "internalType": "contract AcceleratingDistributorInterface",
          "name": "",
          "type": "address"
        }
      ],
      "stateMutability": "view",
      "type": "function"
    },
    {
      "inputs": [
        {
          "components": [
            {
              "internalType": "uint256",
              "name": "windowIndex",
              "type": "uint256"
            },
            {
              "internalType": "uint256",
              "name": "amount",
              "type": "uint256"
            },
            {
              "internalType": "uint256",
              "name": "accountIndex",
              "type": "uint256"
            },
            {
              "internalType": "address",
              "name": "account",
              "type": "address"
            },
            {
              "internalType": "bytes32[]",
              "name": "merkleProof",
              "type": "bytes32[]"
            }
          ],
          "internalType": "struct MerkleDistributorInterface.Claim",
          "name": "_claim",
          "type": "tuple"
        },
        {
          "internalType": "address",
          "name": "stakedToken",
          "type": "address"
        }
      ],
      "name": "claimAndStake",
      "outputs": [],
      "stateMutability": "nonpayable",
      "type": "function"
    },
    {
      "inputs": [],
      "name": "merkleDistributor",
      "outputs": [
        {
          "internalType": "contract AcrossMerkleDistributorInterface",
          "name": "",
          "type": "address"
        }
      ],
      "stateMutability": "view",
      "type": "function"
    },
    {
      "inputs": [
        {
          "internalType": "bytes[]",
          "name": "data",
          "type": "bytes[]"
        }
      ],
      "name": "multicall",
      "outputs": [
        {
          "internalType": "bytes[]",
          "name": "results",
          "type": "bytes[]"
        }
      ],
      "stateMutability": "nonpayable",
      "type": "function"
    },
    {
      "inputs": [],
      "name": "owner",
      "outputs": [
        {
          "internalType": "address",
          "name": "",
          "type": "address"
        }
      ],
      "stateMutability": "view",
      "type": "function"
    },
    {
      "inputs": [],
      "name": "renounceOwnership",
      "outputs": [],
      "stateMutability": "nonpayable",
      "type": "function"
    },
    {
      "inputs": [
        {
          "internalType": "address",
          "name": "newOwner",
          "type": "address"
        }
      ],
      "name": "transferOwnership",
      "outputs": [],
      "stateMutability": "nonpayable",
      "type": "function"
    }
  ],
  "transactionHash": "0x0bc69108b76a66c54891c1b2e8f6574d46c165f5065d6783ea959c9f221c9374",
  "args": [
    "0x67bB4aeFb87a334989B261Ec8112c5D27b24df18",
    "0xbcfbCE9D92A516e3e7b0762AE218B4194adE34b4"
  ],
  "numDeployments": 1,
  "solcInputHash": "d7ebbe519867ff5a3df7e5b3f3946e42",
  "bytecode": "0x60c060405234801561001057600080fd5b506040516200153638038062001536833981016040819052610031916100c0565b600160005561003f33610056565b6001600160a01b039182166080521660a0526100fa565b600180546001600160a01b038381166001600160a01b0319831681179093556040519116919082907f8be0079c531659141344cd1fd0a4f28419497f9722a3daafe3b4186f6b6457e090600090a35050565b6001600160a01b03811681146100bd57600080fd5b50565b600080604083850312156100d357600080fd5b82516100de816100a8565b60208401519092506100ef816100a8565b809150509250929050565b60805160a0516113fb6200013b60003960008181609c0152818161046201526104df015260008181610146015281816102a401526103d801526113fb6000f3fe608060405234801561001057600080fd5b506004361061007d5760003560e01c80638da5cb5b1161005b5780638da5cb5b146100f0578063ac9650d81461010e578063f2fde38b1461012e578063f4537f781461014157600080fd5b806307837e65146100825780630961163414610097578063715018a6146100e8575b600080fd5b610095610090366004610ef5565b610168565b005b6100be7f000000000000000000000000000000000000000000000000000000000000000081565b60405173ffffffffffffffffffffffffffffffffffffffff90911681526020015b60405180910390f35b610095610546565b60015473ffffffffffffffffffffffffffffffffffffffff166100be565b61012161011c36600461100d565b61055a565b6040516100df91906110f0565b61009561013c366004611170565b61064f565b6100be7f000000000000000000000000000000000000000000000000000000000000000081565b6002600054036101d9576040517f08c379a000000000000000000000000000000000000000000000000000000000815260206004820152601f60248201527f5265656e7472616e637947756172643a207265656e7472616e742063616c6c0060448201526064015b60405180910390fd5b6002600055606082015173ffffffffffffffffffffffffffffffffffffffff163314610261576040517f08c379a000000000000000000000000000000000000000000000000000000000815260206004820152601860248201527f636c61696d206163636f756e74206e6f742063616c6c6572000000000000000060448201526064016101d0565b81516040517f761b429700000000000000000000000000000000000000000000000000000000815273ffffffffffffffffffffffffffffffffffffffff808416927f00000000000000000000000000000000000000000000000000000000000000009091169163761b4297916102dd9160040190815260200190565b602060405180830381865afa1580156102fa573d6000803e3d6000fd5b505050506040513d601f19601f8201168201806040525081019061031e919061118d565b73ffffffffffffffffffffffffffffffffffffffff161461039b576040517f08c379a000000000000000000000000000000000000000000000000000000000815260206004820152601660248201527f756e657870656374656420636c61696d20746f6b656e0000000000000000000060448201526064016101d0565b6040517f88f038a200000000000000000000000000000000000000000000000000000000815273ffffffffffffffffffffffffffffffffffffffff7f000000000000000000000000000000000000000000000000000000000000000016906388f038a29061040d9085906004016111aa565b600060405180830381600087803b15801561042757600080fd5b505af115801561043b573d6000803e3d6000fd5b5050506020830151610487915073ffffffffffffffffffffffffffffffffffffffff8316907f000000000000000000000000000000000000000000000000000000000000000090610706565b60208201516040517f2dd5567a00000000000000000000000000000000000000000000000000000000815233600482015273ffffffffffffffffffffffffffffffffffffffff838116602483015260448201929092527f000000000000000000000000000000000000000000000000000000000000000090911690632dd5567a90606401600060405180830381600087803b15801561052557600080fd5b505af1158015610539573d6000803e3d6000fd5b5050600160005550505050565b61054e6108c4565b6105586000610945565b565b60608167ffffffffffffffff81111561057557610575610e1c565b6040519080825280602002602001820160405280156105a857816020015b60608152602001906001900390816105935790505b50905060005b8281101561064857610618308585848181106105cc576105cc61123a565b90506020028101906105de9190611269565b8080601f0160208091040260200160405190810160405280939291908181526020018383808284376000920191909152506109bc92505050565b82828151811061062a5761062a61123a565b60200260200101819052508080610640906112d5565b9150506105ae565b5092915050565b6106576108c4565b73ffffffffffffffffffffffffffffffffffffffff81166106fa576040517f08c379a000000000000000000000000000000000000000000000000000000000815260206004820152602660248201527f4f776e61626c653a206e6577206f776e657220697320746865207a65726f206160448201527f646472657373000000000000000000000000000000000000000000000000000060648201526084016101d0565b61070381610945565b50565b8015806107a657506040517fdd62ed3e00000000000000000000000000000000000000000000000000000000815230600482015273ffffffffffffffffffffffffffffffffffffffff838116602483015284169063dd62ed3e90604401602060405180830381865afa158015610780573d6000803e3d6000fd5b505050506040513d601f19601f820116820180604052508101906107a49190611334565b155b610832576040517f08c379a000000000000000000000000000000000000000000000000000000000815260206004820152603660248201527f5361666545524332303a20617070726f76652066726f6d206e6f6e2d7a65726f60448201527f20746f206e6f6e2d7a65726f20616c6c6f77616e63650000000000000000000060648201526084016101d0565b6040805173ffffffffffffffffffffffffffffffffffffffff8416602482015260448082018490528251808303909101815260649091019091526020810180517bffffffffffffffffffffffffffffffffffffffffffffffffffffffff167f095ea7b3000000000000000000000000000000000000000000000000000000001790526108bf9084906109e8565b505050565b60015473ffffffffffffffffffffffffffffffffffffffff163314610558576040517f08c379a000000000000000000000000000000000000000000000000000000000815260206004820181905260248201527f4f776e61626c653a2063616c6c6572206973206e6f7420746865206f776e657260448201526064016101d0565b6001805473ffffffffffffffffffffffffffffffffffffffff8381167fffffffffffffffffffffffff0000000000000000000000000000000000000000831681179093556040519116919082907f8be0079c531659141344cd1fd0a4f28419497f9722a3daafe3b4186f6b6457e090600090a35050565b60606109e1838360405180606001604052806027815260200161139f60279139610af4565b9392505050565b6000610a4a826040518060400160405280602081526020017f5361666545524332303a206c6f772d6c6576656c2063616c6c206661696c65648152508573ffffffffffffffffffffffffffffffffffffffff16610c1c9092919063ffffffff16565b8051909150156108bf5780806020019051810190610a68919061134d565b6108bf576040517f08c379a000000000000000000000000000000000000000000000000000000000815260206004820152602a60248201527f5361666545524332303a204552433230206f7065726174696f6e20646964206e60448201527f6f7420737563636565640000000000000000000000000000000000000000000060648201526084016101d0565b606073ffffffffffffffffffffffffffffffffffffffff84163b610b9a576040517f08c379a000000000000000000000000000000000000000000000000000000000815260206004820152602660248201527f416464726573733a2064656c65676174652063616c6c20746f206e6f6e2d636f60448201527f6e7472616374000000000000000000000000000000000000000000000000000060648201526084016101d0565b6000808573ffffffffffffffffffffffffffffffffffffffff1685604051610bc2919061136f565b600060405180830381855af49150503d8060008114610bfd576040519150601f19603f3d011682016040523d82523d6000602084013e610c02565b606091505b5091509150610c12828286610c33565b9695505050505050565b6060610c2b8484600085610c86565b949350505050565b60608315610c425750816109e1565b825115610c525782518084602001fd5b816040517f08c379a00000000000000000000000000000000000000000000000000000000081526004016101d0919061138b565b606082471015610d18576040517f08c379a000000000000000000000000000000000000000000000000000000000815260206004820152602660248201527f416464726573733a20696e73756666696369656e742062616c616e636520666f60448201527f722063616c6c000000000000000000000000000000000000000000000000000060648201526084016101d0565b73ffffffffffffffffffffffffffffffffffffffff85163b610d96576040517f08c379a000000000000000000000000000000000000000000000000000000000815260206004820152601d60248201527f416464726573733a2063616c6c20746f206e6f6e2d636f6e747261637400000060448201526064016101d0565b6000808673ffffffffffffffffffffffffffffffffffffffff168587604051610dbf919061136f565b60006040518083038185875af1925050503d8060008114610dfc576040519150601f19603f3d011682016040523d82523d6000602084013e610e01565b606091505b5091509150610e11828286610c33565b979650505050505050565b7f4e487b7100000000000000000000000000000000000000000000000000000000600052604160045260246000fd5b60405160a0810167ffffffffffffffff81118282101715610e6e57610e6e610e1c565b60405290565b604051601f82017fffffffffffffffffffffffffffffffffffffffffffffffffffffffffffffffe016810167ffffffffffffffff81118282101715610ebb57610ebb610e1c565b604052919050565b73ffffffffffffffffffffffffffffffffffffffff8116811461070357600080fd5b8035610ef081610ec3565b919050565b60008060408385031215610f0857600080fd5b823567ffffffffffffffff80821115610f2057600080fd5b9084019060a08287031215610f3457600080fd5b610f3c610e4b565b8235815260208084013581830152604084013560408301526060840135610f6281610ec3565b6060830152608084013583811115610f7957600080fd5b80850194505087601f850112610f8e57600080fd5b833583811115610fa057610fa0610e1c565b8060051b9350610fb1828501610e74565b818152938501820193828101908a861115610fcb57600080fd5b958301955b85871015610fe957863582529583019590830190610fd0565b806080860152505050819550611000818801610ee5565b9450505050509250929050565b6000806020838503121561102057600080fd5b823567ffffffffffffffff8082111561103857600080fd5b818501915085601f83011261104c57600080fd5b81358181111561105b57600080fd5b8660208260051b850101111561107057600080fd5b60209290920196919550909350505050565b60005b8381101561109d578181015183820152602001611085565b50506000910152565b600081518084526110be816020860160208601611082565b601f017fffffffffffffffffffffffffffffffffffffffffffffffffffffffffffffffe0169290920160200192915050565b6000602080830181845280855180835260408601915060408160051b870101925083870160005b82811015611163577fffffffffffffffffffffffffffffffffffffffffffffffffffffffffffffffc08886030184526111518583516110a6565b94509285019290850190600101611117565b5092979650505050505050565b60006020828403121561118257600080fd5b81356109e181610ec3565b60006020828403121561119f57600080fd5b81516109e181610ec3565b6000602080835260c083018451828501528185015160408501526040850151606085015273ffffffffffffffffffffffffffffffffffffffff6060860151166080850152608085015160a08086015281815180845260e0870191508483019350600092505b8083101561122f578351825292840192600192909201919084019061120f565b509695505050505050565b7f4e487b7100000000000000000000000000000000000000000000000000000000600052603260045260246000fd5b60008083357fffffffffffffffffffffffffffffffffffffffffffffffffffffffffffffffe184360301811261129e57600080fd5b83018035915067ffffffffffffffff8211156112b957600080fd5b6020019150368190038213156112ce57600080fd5b9250929050565b60007fffffffffffffffffffffffffffffffffffffffffffffffffffffffffffffffff820361132d577f4e487b7100000000000000000000000000000000000000000000000000000000600052601160045260246000fd5b5060010190565b60006020828403121561134657600080fd5b5051919050565b60006020828403121561135f57600080fd5b815180151581146109e157600080fd5b60008251611381818460208701611082565b9190910192915050565b6020815260006109e160208301846110a656fe416464726573733a206c6f772d6c6576656c2064656c65676174652063616c6c206661696c6564a26469706673582212205035fd493e82e671be4fe798e09daf2b87bff328ac3b0adf85b803ea16cf2d8164736f6c63430008110033",
  "devdoc": {
    "kind": "dev",
    "methods": {
      "claimAndStake((uint256,uint256,uint256,address,bytes32[]),address)": {
        "details": "Will revert if `merkleDistributor` is not set to valid MerkleDistributor contract.Will revert if the claim recipient account is not equal to caller, or if the reward token      for claim is not a valid staking token.Will revert if this contract is not a \"whitelisted claimer\" on the MerkleDistributor contract.",
        "params": {
          "_claim": "Claim leaf to retrieve from MerkleDistributor.",
          "stakedToken": "The address of the token to stake."
        }
      },
      "multicall(bytes[])": {
        "details": "Receives and executes a batch of function calls on this contract."
      },
      "owner()": {
        "details": "Returns the address of the current owner."
      },
      "renounceOwnership()": {
        "details": "Leaves the contract without owner. It will not be possible to call `onlyOwner` functions anymore. Can only be called by the current owner. NOTE: Renouncing ownership will leave the contract without an owner, thereby removing any functionality that is only available to the owner."
      },
      "transferOwnership(address)": {
        "details": "Transfers ownership of the contract to a new account (`newOwner`). Can only be called by the current owner."
      }
    },
    "version": 1
  },
  "userdoc": {
    "kind": "user",
    "methods": {
      "claimAndStake((uint256,uint256,uint256,address,bytes32[]),address)": {
        "notice": "Claim tokens from a MerkleDistributor contract and stake them for rewards in AcceleratingDistributor."
      }
    },
    "notice": "Allows claimer to claim tokens from AcrossMerkleDistributor and stake into AcceleratingDistributor atomically in a single transaction. This intermediary contract also removes the need for claimer to approve AcceleratingDistributor to spend its staking tokens.",
    "version": 1
  },
  "storageLayout": {
    "storage": [
      {
        "astId": 303,
        "contract": "contracts/ClaimAndStake.sol:ClaimAndStake",
        "label": "_status",
        "offset": 0,
        "slot": "0",
        "type": "t_uint256"
      },
      {
        "astId": 187,
        "contract": "contracts/ClaimAndStake.sol:ClaimAndStake",
        "label": "_owner",
        "offset": 0,
        "slot": "1",
        "type": "t_address"
      }
    ],
    "types": {
      "t_address": {
        "encoding": "inplace",
        "label": "address",
        "numberOfBytes": "20"
      },
      "t_uint256": {
        "encoding": "inplace",
        "label": "uint256",
        "numberOfBytes": "32"
      }
    }
  }
}