{
  "address": "0xe088bE46b113ad0A667D573d14F9Ff8750AaE2Bb",
  "abi": [
    {
      "inputs": [
        {
          "internalType": "address",
          "name": "_rewardToken",
          "type": "address"
        }
      ],
      "stateMutability": "nonpayable",
      "type": "constructor"
    },
    {
      "anonymous": false,
      "inputs": [
        {
          "indexed": true,
          "internalType": "address",
          "name": "token",
          "type": "address"
        },
        {
          "indexed": true,
          "internalType": "address",
          "name": "user",
          "type": "address"
        },
        {
          "indexed": false,
          "internalType": "uint256",
          "name": "tokenCumulativeStaked",
          "type": "uint256"
        }
      ],
      "name": "Exit",
      "type": "event"
    },
    {
      "anonymous": false,
      "inputs": [
        {
          "indexed": true,
          "internalType": "address",
          "name": "previousOwner",
          "type": "address"
        },
        {
          "indexed": true,
          "internalType": "address",
          "name": "newOwner",
          "type": "address"
        }
      ],
      "name": "OwnershipTransferred",
      "type": "event"
    },
    {
      "anonymous": false,
      "inputs": [
        {
          "indexed": true,
          "internalType": "address",
          "name": "token",
          "type": "address"
        },
        {
          "indexed": true,
          "internalType": "address",
          "name": "to",
          "type": "address"
        },
        {
          "indexed": false,
          "internalType": "uint256",
          "name": "amount",
          "type": "uint256"
        },
        {
          "indexed": true,
          "internalType": "address",
          "name": "caller",
          "type": "address"
        }
      ],
      "name": "RecoverErc20",
      "type": "event"
    },
    {
      "anonymous": false,
      "inputs": [
        {
          "indexed": true,
          "internalType": "address",
          "name": "token",
          "type": "address"
        },
        {
          "indexed": true,
          "internalType": "address",
          "name": "user",
          "type": "address"
        },
        {
          "indexed": false,
          "internalType": "uint256",
          "name": "rewardsToSend",
          "type": "uint256"
        },
        {
          "indexed": false,
          "internalType": "uint256",
          "name": "tokenLastUpdateTime",
          "type": "uint256"
        },
        {
          "indexed": false,
          "internalType": "uint256",
          "name": "tokenRewardPerTokenStored",
          "type": "uint256"
        },
        {
          "indexed": false,
          "internalType": "uint256",
          "name": "userRewardsOutstanding",
          "type": "uint256"
        },
        {
          "indexed": false,
          "internalType": "uint256",
          "name": "userRewardsPaidPerToken",
          "type": "uint256"
        }
      ],
      "name": "RewardsWithdrawn",
      "type": "event"
    },
    {
      "anonymous": false,
      "inputs": [
        {
          "indexed": true,
          "internalType": "address",
          "name": "token",
          "type": "address"
        },
        {
          "indexed": true,
          "internalType": "address",
          "name": "user",
          "type": "address"
        },
        {
          "indexed": false,
          "internalType": "uint256",
          "name": "amount",
          "type": "uint256"
        },
        {
          "indexed": false,
          "internalType": "uint256",
          "name": "averageDepositTime",
          "type": "uint256"
        },
        {
          "indexed": false,
          "internalType": "uint256",
          "name": "cumulativeBalance",
          "type": "uint256"
        },
        {
          "indexed": false,
          "internalType": "uint256",
          "name": "tokenCumulativeStaked",
          "type": "uint256"
        }
      ],
      "name": "Stake",
      "type": "event"
    },
    {
      "anonymous": false,
      "inputs": [
        {
          "indexed": true,
          "internalType": "address",
          "name": "token",
          "type": "address"
        },
        {
          "indexed": false,
          "internalType": "bool",
          "name": "enabled",
          "type": "bool"
        },
        {
          "indexed": false,
          "internalType": "uint256",
          "name": "baseEmissionRate",
          "type": "uint256"
        },
        {
          "indexed": false,
          "internalType": "uint256",
          "name": "maxMultiplier",
          "type": "uint256"
        },
        {
          "indexed": false,
          "internalType": "uint256",
          "name": "secondsToMaxMultiplier",
          "type": "uint256"
        },
        {
          "indexed": false,
          "internalType": "uint256",
          "name": "lastUpdateTime",
          "type": "uint256"
        }
      ],
      "name": "TokenConfiguredForStaking",
      "type": "event"
    },
    {
      "anonymous": false,
      "inputs": [
        {
          "indexed": true,
          "internalType": "address",
          "name": "token",
          "type": "address"
        },
        {
          "indexed": true,
          "internalType": "address",
          "name": "user",
          "type": "address"
        },
        {
          "indexed": false,
          "internalType": "uint256",
          "name": "amount",
          "type": "uint256"
        },
        {
          "indexed": false,
          "internalType": "uint256",
          "name": "remainingCumulativeBalance",
          "type": "uint256"
        },
        {
          "indexed": false,
          "internalType": "uint256",
          "name": "tokenCumulativeStaked",
          "type": "uint256"
        }
      ],
      "name": "Unstake",
      "type": "event"
    },
    {
      "inputs": [
        {
          "internalType": "address",
          "name": "stakedToken",
          "type": "address"
        }
      ],
      "name": "baseRewardPerToken",
      "outputs": [
        {
          "internalType": "uint256",
          "name": "",
          "type": "uint256"
        }
      ],
      "stateMutability": "view",
      "type": "function"
    },
    {
      "inputs": [
        {
          "internalType": "address",
          "name": "stakedToken",
          "type": "address"
        },
        {
          "internalType": "bool",
          "name": "enabled",
          "type": "bool"
        },
        {
          "internalType": "uint256",
          "name": "baseEmissionRate",
          "type": "uint256"
        },
        {
          "internalType": "uint256",
          "name": "maxMultiplier",
          "type": "uint256"
        },
        {
          "internalType": "uint256",
          "name": "secondsToMaxMultiplier",
          "type": "uint256"
        }
      ],
      "name": "configureStakingToken",
      "outputs": [],
      "stateMutability": "nonpayable",
      "type": "function"
    },
    {
      "inputs": [
        {
          "internalType": "address",
          "name": "stakedToken",
          "type": "address"
        }
      ],
      "name": "exit",
      "outputs": [],
      "stateMutability": "nonpayable",
      "type": "function"
    },
    {
      "inputs": [
        {
          "internalType": "address",
          "name": "stakedToken",
          "type": "address"
        },
        {
          "internalType": "address",
          "name": "account",
          "type": "address"
        },
        {
          "internalType": "uint256",
          "name": "amount",
          "type": "uint256"
        }
      ],
      "name": "getAverageDepositTimePostDeposit",
      "outputs": [
        {
          "internalType": "uint256",
          "name": "",
          "type": "uint256"
        }
      ],
      "stateMutability": "view",
      "type": "function"
    },
    {
      "inputs": [
        {
          "internalType": "address",
          "name": "stakedToken",
          "type": "address"
        }
      ],
      "name": "getCumulativeStaked",
      "outputs": [
        {
          "internalType": "uint256",
          "name": "",
          "type": "uint256"
        }
      ],
      "stateMutability": "view",
      "type": "function"
    },
    {
      "inputs": [],
      "name": "getCurrentTime",
      "outputs": [
        {
          "internalType": "uint256",
          "name": "",
          "type": "uint256"
        }
      ],
      "stateMutability": "view",
      "type": "function"
    },
    {
      "inputs": [
        {
          "internalType": "address",
          "name": "stakedToken",
          "type": "address"
        },
        {
          "internalType": "address",
          "name": "account",
          "type": "address"
        }
      ],
      "name": "getOutstandingRewards",
      "outputs": [
        {
          "internalType": "uint256",
          "name": "",
          "type": "uint256"
        }
      ],
      "stateMutability": "view",
      "type": "function"
    },
    {
      "inputs": [
        {
          "internalType": "address",
          "name": "stakedToken",
          "type": "address"
        },
        {
          "internalType": "address",
          "name": "account",
          "type": "address"
        }
      ],
      "name": "getTimeSinceAverageDeposit",
      "outputs": [
        {
          "internalType": "uint256",
          "name": "",
          "type": "uint256"
        }
      ],
      "stateMutability": "view",
      "type": "function"
    },
    {
      "inputs": [
        {
          "internalType": "address",
          "name": "stakedToken",
          "type": "address"
        },
        {
          "internalType": "address",
          "name": "account",
          "type": "address"
        }
      ],
      "name": "getUserRewardMultiplier",
      "outputs": [
        {
          "internalType": "uint256",
          "name": "",
          "type": "uint256"
        }
      ],
      "stateMutability": "view",
      "type": "function"
    },
    {
      "inputs": [
        {
          "internalType": "address",
          "name": "stakedToken",
          "type": "address"
        },
        {
          "internalType": "address",
          "name": "account",
          "type": "address"
        }
      ],
      "name": "getUserStake",
      "outputs": [
        {
          "components": [
            {
              "internalType": "uint256",
              "name": "cumulativeBalance",
              "type": "uint256"
            },
            {
              "internalType": "uint256",
              "name": "averageDepositTime",
              "type": "uint256"
            },
            {
              "internalType": "uint256",
              "name": "rewardsAccumulatedPerToken",
              "type": "uint256"
            },
            {
              "internalType": "uint256",
              "name": "rewardsOutstanding",
              "type": "uint256"
            }
          ],
          "internalType": "struct AcceleratingDistributor.UserDeposit",
          "name": "",
          "type": "tuple"
        }
      ],
      "stateMutability": "view",
      "type": "function"
    },
    {
      "inputs": [
        {
          "internalType": "bytes[]",
          "name": "data",
          "type": "bytes[]"
        }
      ],
      "name": "multicall",
      "outputs": [
        {
          "internalType": "bytes[]",
          "name": "results",
          "type": "bytes[]"
        }
      ],
      "stateMutability": "nonpayable",
      "type": "function"
    },
    {
      "inputs": [],
      "name": "owner",
      "outputs": [
        {
          "internalType": "address",
          "name": "",
          "type": "address"
        }
      ],
      "stateMutability": "view",
      "type": "function"
    },
    {
      "inputs": [
        {
          "internalType": "address",
          "name": "tokenAddress",
          "type": "address"
        },
        {
          "internalType": "uint256",
          "name": "amount",
          "type": "uint256"
        }
      ],
      "name": "recoverErc20",
      "outputs": [],
      "stateMutability": "nonpayable",
      "type": "function"
    },
    {
      "inputs": [],
      "name": "renounceOwnership",
      "outputs": [],
      "stateMutability": "nonpayable",
      "type": "function"
    },
    {
      "inputs": [],
      "name": "rewardToken",
      "outputs": [
        {
          "internalType": "contract IERC20",
          "name": "",
          "type": "address"
        }
      ],
      "stateMutability": "view",
      "type": "function"
    },
    {
      "inputs": [
        {
          "internalType": "address",
          "name": "stakedToken",
          "type": "address"
        },
        {
          "internalType": "uint256",
          "name": "amount",
          "type": "uint256"
        }
      ],
      "name": "stake",
      "outputs": [],
      "stateMutability": "nonpayable",
      "type": "function"
    },
    {
      "inputs": [
        {
          "internalType": "address",
          "name": "",
          "type": "address"
        }
      ],
      "name": "stakingTokens",
      "outputs": [
        {
          "internalType": "bool",
          "name": "enabled",
          "type": "bool"
        },
        {
          "internalType": "uint256",
          "name": "baseEmissionRate",
          "type": "uint256"
        },
        {
          "internalType": "uint256",
          "name": "maxMultiplier",
          "type": "uint256"
        },
        {
          "internalType": "uint256",
          "name": "secondsToMaxMultiplier",
          "type": "uint256"
        },
        {
          "internalType": "uint256",
          "name": "cumulativeStaked",
          "type": "uint256"
        },
        {
          "internalType": "uint256",
          "name": "rewardPerTokenStored",
          "type": "uint256"
        },
        {
          "internalType": "uint256",
          "name": "lastUpdateTime",
          "type": "uint256"
        }
      ],
      "stateMutability": "view",
      "type": "function"
    },
    {
      "inputs": [
        {
          "internalType": "address",
          "name": "newOwner",
          "type": "address"
        }
      ],
      "name": "transferOwnership",
      "outputs": [],
      "stateMutability": "nonpayable",
      "type": "function"
    },
    {
      "inputs": [
        {
          "internalType": "address",
          "name": "stakedToken",
          "type": "address"
        },
        {
          "internalType": "uint256",
          "name": "amount",
          "type": "uint256"
        }
      ],
      "name": "unstake",
      "outputs": [],
      "stateMutability": "nonpayable",
      "type": "function"
    },
    {
      "inputs": [
        {
          "internalType": "address",
          "name": "stakedToken",
          "type": "address"
        }
      ],
      "name": "withdrawReward",
      "outputs": [],
      "stateMutability": "nonpayable",
      "type": "function"
    }
  ],
  "transactionHash": "0xce05a23a3f532fb95398efee9e06972024857d16059cf444e71759d3dfd1210a",
  "args": [
    "0x2A42F02Cfd8361BC7A294D1Ec92970787610799b"
  ],
  "numDeployments": 1,
  "solcInputHash": "80e9c9fc8d43a07a01c2d44a11f234ae",
  "bytecode": "0x60a06040523480156200001157600080fd5b506040516200260a3803806200260a8339810160408190526200003491620000a8565b6001600055620000443362000056565b6001600160a01b0316608052620000da565b600180546001600160a01b038381166001600160a01b0319831681179093556040519116919082907f8be0079c531659141344cd1fd0a4f28419497f9722a3daafe3b4186f6b6457e090600090a35050565b600060208284031215620000bb57600080fd5b81516001600160a01b0381168114620000d357600080fd5b9392505050565b6080516124ff6200010b600039600081816103e1015281816109a401528181611130015261149c01526124ff6000f3fe608060405234801561001057600080fd5b506004361061016c5760003560e01c8063738a8ce6116100cd578063b86e321c11610081578063d8f8083f11610066578063d8f8083f146103b6578063f2fde38b146103c9578063f7c618c1146103dc57600080fd5b8063b86e321c14610390578063c2a672e0146103a357600080fd5b8063ac9650d8116100b2578063ac9650d81461034a578063adc9772e1461036a578063b42652e91461037d57600080fd5b8063738a8ce6146102f85780638da5cb5b1461030b57600080fd5b806342129a50116101245780636616af07116101095780636616af07146102a2578063715018a6146102db5780637229d982146102e557600080fd5b806342129a501461020957806348a94dc91461028f57600080fd5b806329cb924d1161015557806329cb924d146101aa5780632bfb323f146101b05780633710d4c7146101c357600080fd5b80630700f7a1146101715780630f86107c14610197575b600080fd5b61018461017f366004612002565b610403565b6040519081526020015b60405180910390f35b6101846101a5366004612035565b610452565b42610184565b6101846101be366004612002565b61050c565b6101d66101d1366004612002565b6105b8565b60405161018e91908151815260208083015190820152604080830151908201526060918201519181019190915260800190565b610258610217366004612071565b6002602081905260009182526040909120805460018201549282015460038301546004840154600585015460069095015460ff909416959492939192909187565b6040805197151588526020880196909652948601939093526060850191909152608084015260a083015260c082015260e00161018e565b61018461029d366004612071565b61064f565b6101846102b0366004612071565b73ffffffffffffffffffffffffffffffffffffffff1660009081526002602052604090206004015490565b6102e36106d7565b005b6101846102f3366004612002565b610769565b6102e361030636600461208c565b6108a1565b60015473ffffffffffffffffffffffffffffffffffffffff165b60405173ffffffffffffffffffffffffffffffffffffffff909116815260200161018e565b61035d6103583660046120b6565b610b26565b60405161018e91906121a1565b6102e361037836600461208c565b610c1b565b6102e361038b366004612071565b610e70565b6102e361039e366004612071565b610fbe565b6102e36103b136600461208c565b6111f3565b6102e36103c436600461222f565b611419565b6102e36103d7366004612071565b61180b565b6103257f000000000000000000000000000000000000000000000000000000000000000081565b73ffffffffffffffffffffffffffffffffffffffff82811660009081526002602090815260408083209385168352600790930190529081206001015461044990426122ad565b90505b92915050565b73ffffffffffffffffffffffffffffffffffffffff808416600090815260026020908152604080832093861683526007909301905290812082820361049c57600101549050610505565b6000670de0b6b3a76400006104b18787610403565b83546104be9087906122c4565b6104d087670de0b6b3a76400006122dc565b6104da9190612319565b6104e491906122dc565b6104ee9190612319565b905080826001015461050091906122c4565b925050505b9392505050565b73ffffffffffffffffffffffffffffffffffffffff80831660009081526002602090815260408083209385168352600790930190529081208161054f8585610769565b905060006ec097ce7bc90715b34b9f10000000008284600201546105728961064f565b61057c91906122ad565b855461058891906122dc565b61059291906122dc565b61059c9190612319565b90508260030154816105ae91906122c4565b9695505050505050565b6105e36040518060800160405280600081526020016000815260200160008152602001600081525090565b5073ffffffffffffffffffffffffffffffffffffffff918216600090815260026020818152604080842094909516835260079093018352908390208351608081018552815481526001820154938101939093529081015492820192909252600390910154606082015290565b73ffffffffffffffffffffffffffffffffffffffff8116600090815260026020526040812060048101548203610689576005015492915050565b6004810154600182015460068301546106a290426122ad565b6106ac91906122dc565b6106be90670de0b6b3a76400006122dc565b6106c89190612319565b816005015461050591906122c4565b60015473ffffffffffffffffffffffffffffffffffffffff16331461075d576040517f08c379a000000000000000000000000000000000000000000000000000000000815260206004820181905260248201527f4f776e61626c653a2063616c6c6572206973206e6f7420746865206f776e657260448201526064015b60405180910390fd5b610767600061193b565b565b73ffffffffffffffffffffffffffffffffffffffff8083166000908152600260209081526040808320938516835260079093019052908120600181015415806107b157508054155b156107c757670de0b6b3a764000091505061044c565b73ffffffffffffffffffffffffffffffffffffffff84166000908152600260205260408120600301546107fa8686610403565b61080c90670de0b6b3a76400006122dc565b6108169190612319565b9050670de0b6b3a76400008111156108335750670de0b6b3a76400005b73ffffffffffffffffffffffffffffffffffffffff851660009081526002602081905260409091200154670de0b6b3a7640000906108729082906122ad565b61087c90836122dc565b6108869190612319565b61089890670de0b6b3a76400006122c4565b95945050505050565b60026000540361090d576040517f08c379a000000000000000000000000000000000000000000000000000000000815260206004820152601f60248201527f5265656e7472616e637947756172643a207265656e7472616e742063616c6c006044820152606401610754565b6002600081815573ffffffffffffffffffffffffffffffffffffffff841681526020919091526040902060060154156109a2576040517f08c379a000000000000000000000000000000000000000000000000000000000815260206004820152601b60248201527f43616e2774207265636f766572207374616b696e6720746f6b656e00000000006044820152606401610754565b7f000000000000000000000000000000000000000000000000000000000000000073ffffffffffffffffffffffffffffffffffffffff168273ffffffffffffffffffffffffffffffffffffffff1603610a57576040517f08c379a000000000000000000000000000000000000000000000000000000000815260206004820152601a60248201527f43616e2774207265636f7665722072657761726420746f6b656e0000000000006044820152606401610754565b610a97610a7960015473ffffffffffffffffffffffffffffffffffffffff1690565b73ffffffffffffffffffffffffffffffffffffffff841690836119b2565b33610ab760015473ffffffffffffffffffffffffffffffffffffffff1690565b73ffffffffffffffffffffffffffffffffffffffff168373ffffffffffffffffffffffffffffffffffffffff167f8a2c5c5f420c5efda9071155bfe4ab2b2643f444595d067b7448da44d59c0a2884604051610b1591815260200190565b60405180910390a450506001600055565b60608167ffffffffffffffff811115610b4157610b41612354565b604051908082528060200260200182016040528015610b7457816020015b6060815260200190600190039081610b5f5790505b50905060005b82811015610c1457610be430858584818110610b9857610b98612383565b9050602002810190610baa91906123b2565b8080601f016020809104026020016040519081016040528093929190818152602001838380828437600092019190915250611a8b92505050565b828281518110610bf657610bf6612383565b60200260200101819052508080610c0c9061241e565b915050610b7a565b5092915050565b600260005403610c87576040517f08c379a000000000000000000000000000000000000000000000000000000000815260206004820152601f60248201527f5265656e7472616e637947756172643a207265656e7472616e742063616c6c006044820152606401610754565b6002600081815573ffffffffffffffffffffffffffffffffffffffff841681526020919091526040902054829060ff16610d1d576040517f08c379a000000000000000000000000000000000000000000000000000000000815260206004820152601760248201527f7374616b6564546f6b656e206e6f7420656e61626c65640000000000000000006044820152606401610754565b610d278333611ab0565b73ffffffffffffffffffffffffffffffffffffffff8316600090815260026020908152604080832033808552600790910190925282209190610d6b90869086610452565b905080826001018190555083826000016000828254610d8a91906122c4565b909155505073ffffffffffffffffffffffffffffffffffffffff851660009081526002602052604081206004018054869290610dc79084906122c4565b90915550610def905073ffffffffffffffffffffffffffffffffffffffff8616333087611b4b565b815473ffffffffffffffffffffffffffffffffffffffff861660008181526002602090815260409182902060040154825189815291820186905291810193909352606083015233917f249b692ff3a1553daecb2b56a807466cab98a0acdca470f0d18c1064e89b57329060800160405180910390a350506001600055505050565b73ffffffffffffffffffffffffffffffffffffffff8116600090815260026020526040812060060154829103610f02576040517f08c379a000000000000000000000000000000000000000000000000000000000815260206004820152601b60248201527f7374616b6564546f6b656e206e6f7420696e697469616c697a656400000000006044820152606401610754565b610f0c8233611ab0565b73ffffffffffffffffffffffffffffffffffffffff82166000908152600260209081526040808320338452600701909152902054610f4b9083906111f3565b610f5482610fbe565b73ffffffffffffffffffffffffffffffffffffffff8216600081815260026020526040908190206004015490513392917fbc2a67d422c268da6fe45f3e7d194e1d98906d221f1cfad62a5c80f2cd209f4c91610fb291815260200190565b60405180910390a35050565b60026000540361102a576040517f08c379a000000000000000000000000000000000000000000000000000000000815260206004820152601f60248201527f5265656e7472616e637947756172643a207265656e7472616e742063616c6c006044820152606401610754565b6002600081815573ffffffffffffffffffffffffffffffffffffffff8316815260209190915260408120600601548291036110c1576040517f08c379a000000000000000000000000000000000000000000000000000000000815260206004820152601b60248201527f7374616b6564546f6b656e206e6f7420696e697469616c697a656400000000006044820152606401610754565b6110cb8233611ab0565b73ffffffffffffffffffffffffffffffffffffffff82166000908152600260209081526040808320338452600701909152902060038101548015611157576000600383015542600183015561115773ffffffffffffffffffffffffffffffffffffffff7f00000000000000000000000000000000000000000000000000000000000000001633836119b2565b73ffffffffffffffffffffffffffffffffffffffff8416600081815260026020818152604092839020600681015460059091015460038801549388015485518881529384019290925293820193909352606081019190915260808101919091523391907f72d2511ac7dd6d1171d9b798c2662417660eb70235ed1b47dfe9a015929cdf409060a0015b60405180910390a3505060016000555050565b60026000540361125f576040517f08c379a000000000000000000000000000000000000000000000000000000000815260206004820152601f60248201527f5265656e7472616e637947756172643a207265656e7472616e742063616c6c006044820152606401610754565b6002600081815573ffffffffffffffffffffffffffffffffffffffff8416815260209190915260408120600601548391036112f6576040517f08c379a000000000000000000000000000000000000000000000000000000000815260206004820152601b60248201527f7374616b6564546f6b656e206e6f7420696e697469616c697a656400000000006044820152606401610754565b6113008333611ab0565b73ffffffffffffffffffffffffffffffffffffffff8316600090815260026020908152604080832033845260070190915281208054909184918391906113479084906122ad565b909155505073ffffffffffffffffffffffffffffffffffffffff8416600090815260026020526040812060040180548592906113849084906122ad565b909155506113ab905073ffffffffffffffffffffffffffffffffffffffff851633856119b2565b805473ffffffffffffffffffffffffffffffffffffffff8516600081815260026020908152604091829020600401548251888152918201949094529081019290925233917ffe7007b2e89d80edda76299251df08366480cac22e5e260f5e662e850b1f7a32906060016111e0565b60015473ffffffffffffffffffffffffffffffffffffffff16331461149a576040517f08c379a000000000000000000000000000000000000000000000000000000000815260206004820181905260248201527f4f776e61626c653a2063616c6c6572206973206e6f7420746865206f776e65726044820152606401610754565b7f000000000000000000000000000000000000000000000000000000000000000073ffffffffffffffffffffffffffffffffffffffff168573ffffffffffffffffffffffffffffffffffffffff160361154f576040517f08c379a000000000000000000000000000000000000000000000000000000000815260206004820152601c60248201527f5374616b656420746f6b656e2069732072657761726420746f6b656e000000006044820152606401610754565b6ec097ce7bc90715b34b9f100000000082106115ed576040517f08c379a000000000000000000000000000000000000000000000000000000000815260206004820152602660248201527f6d61784d756c7469706c6965722063616e206e6f742062652073657420746f6f60448201527f206c6172676500000000000000000000000000000000000000000000000000006064820152608401610754565b6000811161167d576040517f08c379a000000000000000000000000000000000000000000000000000000000815260206004820152602d60248201527f7365636f6e6473546f4d61784d756c7469706c696572206d757374206265206760448201527f726561746572207468616e2030000000000000000000000000000000000000006064820152608401610754565b6b033b2e3c9fd0803ce80000008310611718576040517f08c379a000000000000000000000000000000000000000000000000000000000815260206004820152602960248201527f62617365456d697373696f6e526174652063616e206e6f74206265207365742060448201527f746f6f206c6172676500000000000000000000000000000000000000000000006064820152608401610754565b73ffffffffffffffffffffffffffffffffffffffff8516600090815260026020526040902060068101541561175257611752866000611ab0565b80547fffffffffffffffffffffffffffffffffffffffffffffffffffffffffffffff001685151517815560018101849055600281018390556003810182905542600682018190556040805187151581526020810187905290810185905260608101849052608081019190915273ffffffffffffffffffffffffffffffffffffffff8716907fdf80da729e79c8aa520a27834205fd35a54135f495b79561e19bd67166250a079060a00160405180910390a2505050505050565b60015473ffffffffffffffffffffffffffffffffffffffff16331461188c576040517f08c379a000000000000000000000000000000000000000000000000000000000815260206004820181905260248201527f4f776e61626c653a2063616c6c6572206973206e6f7420746865206f776e65726044820152606401610754565b73ffffffffffffffffffffffffffffffffffffffff811661192f576040517f08c379a000000000000000000000000000000000000000000000000000000000815260206004820152602660248201527f4f776e61626c653a206e6577206f776e657220697320746865207a65726f206160448201527f64647265737300000000000000000000000000000000000000000000000000006064820152608401610754565b6119388161193b565b50565b6001805473ffffffffffffffffffffffffffffffffffffffff8381167fffffffffffffffffffffffff0000000000000000000000000000000000000000831681179093556040519116919082907f8be0079c531659141344cd1fd0a4f28419497f9722a3daafe3b4186f6b6457e090600090a35050565b60405173ffffffffffffffffffffffffffffffffffffffff8316602482015260448101829052611a869084907fa9059cbb00000000000000000000000000000000000000000000000000000000906064015b604080517fffffffffffffffffffffffffffffffffffffffffffffffffffffffffffffffe08184030181529190526020810180517bffffffffffffffffffffffffffffffffffffffffffffffffffffffff167fffffffff0000000000000000000000000000000000000000000000000000000090931692909217909152611baf565b505050565b606061044983836040518060600160405280602781526020016124a360279139611cbb565b73ffffffffffffffffffffffffffffffffffffffff82166000908152600260205260409020611ade8361064f565b600582015542600682015573ffffffffffffffffffffffffffffffffffffffff821615611a865773ffffffffffffffffffffffffffffffffffffffff821660009081526007820160205260409020611b36848461050c565b60038201556005820154600290910155505050565b60405173ffffffffffffffffffffffffffffffffffffffff80851660248301528316604482015260648101829052611ba99085907f23b872dd0000000000000000000000000000000000000000000000000000000090608401611a04565b50505050565b6000611c11826040518060400160405280602081526020017f5361666545524332303a206c6f772d6c6576656c2063616c6c206661696c65648152508573ffffffffffffffffffffffffffffffffffffffff16611dd99092919063ffffffff16565b805190915015611a865780806020019051810190611c2f9190612456565b611a86576040517f08c379a000000000000000000000000000000000000000000000000000000000815260206004820152602a60248201527f5361666545524332303a204552433230206f7065726174696f6e20646964206e60448201527f6f742073756363656564000000000000000000000000000000000000000000006064820152608401610754565b606073ffffffffffffffffffffffffffffffffffffffff84163b611d61576040517f08c379a000000000000000000000000000000000000000000000000000000000815260206004820152602660248201527f416464726573733a2064656c65676174652063616c6c20746f206e6f6e2d636f60448201527f6e747261637400000000000000000000000000000000000000000000000000006064820152608401610754565b6000808573ffffffffffffffffffffffffffffffffffffffff1685604051611d899190612473565b600060405180830381855af49150503d8060008114611dc4576040519150601f19603f3d011682016040523d82523d6000602084013e611dc9565b606091505b5091509150610500828286611df0565b6060611de88484600085611e43565b949350505050565b60608315611dff575081610505565b825115611e0f5782518084602001fd5b816040517f08c379a0000000000000000000000000000000000000000000000000000000008152600401610754919061248f565b606082471015611ed5576040517f08c379a000000000000000000000000000000000000000000000000000000000815260206004820152602660248201527f416464726573733a20696e73756666696369656e742062616c616e636520666f60448201527f722063616c6c00000000000000000000000000000000000000000000000000006064820152608401610754565b73ffffffffffffffffffffffffffffffffffffffff85163b611f53576040517f08c379a000000000000000000000000000000000000000000000000000000000815260206004820152601d60248201527f416464726573733a2063616c6c20746f206e6f6e2d636f6e74726163740000006044820152606401610754565b6000808673ffffffffffffffffffffffffffffffffffffffff168587604051611f7c9190612473565b60006040518083038185875af1925050503d8060008114611fb9576040519150601f19603f3d011682016040523d82523d6000602084013e611fbe565b606091505b5091509150611fce828286611df0565b979650505050505050565b803573ffffffffffffffffffffffffffffffffffffffff81168114611ffd57600080fd5b919050565b6000806040838503121561201557600080fd5b61201e83611fd9565b915061202c60208401611fd9565b90509250929050565b60008060006060848603121561204a57600080fd5b61205384611fd9565b925061206160208501611fd9565b9150604084013590509250925092565b60006020828403121561208357600080fd5b61044982611fd9565b6000806040838503121561209f57600080fd5b6120a883611fd9565b946020939093013593505050565b600080602083850312156120c957600080fd5b823567ffffffffffffffff808211156120e157600080fd5b818501915085601f8301126120f557600080fd5b81358181111561210457600080fd5b8660208260051b850101111561211957600080fd5b60209290920196919550909350505050565b60005b8381101561214657818101518382015260200161212e565b83811115611ba95750506000910152565b6000815180845261216f81602086016020860161212b565b601f017fffffffffffffffffffffffffffffffffffffffffffffffffffffffffffffffe0169290920160200192915050565b6000602080830181845280855180835260408601915060408160051b870101925083870160005b82811015612214577fffffffffffffffffffffffffffffffffffffffffffffffffffffffffffffffc0888603018452612202858351612157565b945092850192908501906001016121c8565b5092979650505050505050565b801515811461193857600080fd5b600080600080600060a0868803121561224757600080fd5b61225086611fd9565b9450602086013561226081612221565b94979496505050506040830135926060810135926080909101359150565b7f4e487b7100000000000000000000000000000000000000000000000000000000600052601160045260246000fd5b6000828210156122bf576122bf61227e565b500390565b600082198211156122d7576122d761227e565b500190565b6000817fffffffffffffffffffffffffffffffffffffffffffffffffffffffffffffffff04831182151516156123145761231461227e565b500290565b60008261234f577f4e487b7100000000000000000000000000000000000000000000000000000000600052601260045260246000fd5b500490565b7f4e487b7100000000000000000000000000000000000000000000000000000000600052604160045260246000fd5b7f4e487b7100000000000000000000000000000000000000000000000000000000600052603260045260246000fd5b60008083357fffffffffffffffffffffffffffffffffffffffffffffffffffffffffffffffe18436030181126123e757600080fd5b83018035915067ffffffffffffffff82111561240257600080fd5b60200191503681900382131561241757600080fd5b9250929050565b60007fffffffffffffffffffffffffffffffffffffffffffffffffffffffffffffffff820361244f5761244f61227e565b5060010190565b60006020828403121561246857600080fd5b815161050581612221565b6000825161248581846020870161212b565b9190910192915050565b602081526000610449602083018461215756fe416464726573733a206c6f772d6c6576656c2064656c65676174652063616c6c206661696c6564a26469706673582212207e2f2acf2b7dfabe2f8bcee02fe5d0c30285e8c0b18f7c94b60ff8f4a0f592ec64736f6c634300080d0033",
  "devdoc": {
    "kind": "dev",
    "methods": {
      "baseRewardPerToken(address)": {
        "details": "the value returned is represented by a uint256 with fixed precision of 18 decimals.",
        "params": {
          "stakedToken": "The address of the staked token to query."
        },
        "returns": {
          "_0": "uint256 Total base reward per token that will be applied, pro-rata, to stakers."
        }
      },
      "configureStakingToken(address,bool,uint256,uint256,uint256)": {
        "details": "The owner should ensure that the token enabled is a standard ERC20 token to ensure correct functionality.",
        "params": {
          "baseEmissionRate": "The base emission rate for staking the token. This is split pro-rata between all users.",
          "enabled": "Whether the token is enabled for staking.",
          "maxMultiplier": "The maximum multiplier for staking which increases your rewards the longer you stake.",
          "secondsToMaxMultiplier": "The number of seconds needed to stake to reach the maximum multiplier.",
          "stakedToken": "The address of the token that can be staked."
        }
      },
      "exit(address)": {
        "details": "Calling this method will reset the caller's reward multiplier.",
        "params": {
          "stakedToken": "The address of the token to get rewards for."
        }
      },
      "getAverageDepositTimePostDeposit(address,address,uint256)": {
        "params": {
          "account": "The address of the user to query.",
          "stakedToken": "The address of the staked token to query."
        },
        "returns": {
          "_0": "uint256 Average post deposit time, considering all deposits to date."
        }
      },
      "getCumulativeStaked(address)": {
        "params": {
          "stakedToken": "The address of the staked token to query."
        },
        "returns": {
          "_0": "uint256 Total amount staked of the stakedToken."
        }
      },
      "getOutstandingRewards(address,address)": {
        "params": {
          "account": "The address of the user to query.",
          "stakedToken": "The address of the staked token to query."
        },
        "returns": {
          "_0": "uint256 Total outstanding rewards entitled to user."
        }
      },
      "getTimeSinceAverageDeposit(address,address)": {
        "params": {
          "account": "The address of the user to query.",
          "stakedToken": "The address of the staked token to query."
        },
        "returns": {
          "_0": "uint256 Time, in seconds, between the users average deposit time and the current time."
        }
      },
      "getUserRewardMultiplier(address,address)": {
        "details": "the value returned is represented by a uint256 with fixed precision of 18 decimals.",
        "params": {
          "account": "The address of the user to query.",
          "stakedToken": "The address of the staked token to query."
        },
        "returns": {
          "_0": "uint256 User multiplier, applied to the baseRewardPerToken, when claiming rewards."
        }
      },
      "getUserStake(address,address)": {
        "params": {
          "account": "The address of user to query.",
          "stakedToken": "The address of the staked token to query."
        },
        "returns": {
          "_0": "UserDeposit Struct with: {cumulativeBalance,averageDepositTime,rewardsAccumulatedPerToken,rewardsOutstanding}"
        }
      },
      "multicall(bytes[])": {
        "details": "Receives and executes a batch of function calls on this contract."
      },
      "owner()": {
        "details": "Returns the address of the current owner."
      },
      "recoverErc20(address,uint256)": {
        "details": "Any wallet can call this function as it will only ever send tokens to the owner of the distributor.",
        "params": {
          "amount": "The amount of the token to recover.",
          "tokenAddress": "The address of the token to recover."
        }
      },
      "renounceOwnership()": {
        "details": "Leaves the contract without owner. It will not be possible to call `onlyOwner` functions anymore. Can only be called by the current owner. NOTE: Renouncing ownership will leave the contract without an owner, thereby removing any functionality that is only available to the owner."
      },
      "stake(address,uint256)": {
        "details": "The caller of this function must approve this contract to spend amount of stakedToken.",
        "params": {
          "amount": "The amount of the token to stake.",
          "stakedToken": "The address of the token to stake."
        }
      },
      "transferOwnership(address)": {
        "details": "Transfers ownership of the contract to a new account (`newOwner`). Can only be called by the current owner."
      },
      "unstake(address,uint256)": {
        "params": {
          "amount": "The amount of the token to withdraw.",
          "stakedToken": "The address of the token to withdraw."
        }
      },
      "withdrawReward(address)": {
        "details": "Calling this method will reset the caller's reward multiplier.",
        "params": {
          "stakedToken": "The address of the token to get rewards for."
        }
      }
    },
    "version": 1
  },
  "userdoc": {
    "kind": "user",
    "methods": {
      "baseRewardPerToken(address)": {
        "notice": "Returns the base rewards per staked token for a given staking token. This factors in the last time any internal logic was called on this contract to correctly attribute retroactive cumulative rewards."
      },
      "configureStakingToken(address,bool,uint256,uint256,uint256)": {
        "notice": "Enable a token for staking."
      },
      "exit(address)": {
        "notice": "Exits a staking position by unstaking and getting rewards. This totally exits the staking position."
      },
      "getAverageDepositTimePostDeposit(address,address,uint256)": {
        "notice": "Returns a users new average deposit time, considering the addition of a new deposit. This factors in the cumulative previous deposits, new deposit and time from the last deposit."
      },
      "getCumulativeStaked(address)": {
        "notice": "Returns the total staked for a given stakedToken."
      },
      "getOutstandingRewards(address,address)": {
        "notice": "Returns the total outstanding rewards entitled to a user for a given staking token. This factors in the users staking duration (and therefore reward multiplier) and their pro-rata share of the total rewards."
      },
      "getTimeSinceAverageDeposit(address,address)": {
        "notice": "Returns the time that has elapsed between the current time and the last users average deposit time."
      },
      "getUserRewardMultiplier(address,address)": {
        "notice": "Returns the multiplier applied to the base reward per staked token for a given staking token and account. The longer a user stakes the higher their multiplier up to maxMultiplier for that given staking token. any internal logic was called on this contract to correctly attribute retroactive cumulative rewards."
      },
      "getUserStake(address,address)": {
        "notice": "Returns all the information associated with a user's stake."
      },
      "recoverErc20(address,uint256)": {
        "notice": "Recover an ERC20 token either dropped on the contract or excess after the staking program ends."
      },
      "stake(address,uint256)": {
        "notice": "Stake tokens for rewards."
      },
      "unstake(address,uint256)": {
        "notice": "Withdraw staked tokens."
      },
      "withdrawReward(address)": {
        "notice": "Get entitled rewards for the staker."
      }
    },
    "notice": "Across token distribution contract. Contract is inspired by Synthetix staking contract and Ampleforth geyser. Stakers start by earning their pro-rata share of a baseEmissionRate per second which increases based on how long they have staked in the contract, up to a max emission rate of baseEmissionRate * maxMultiplier. Multiple LP tokens can be staked in this contract enabling depositors to batch stake and claim via multicall. Note that this contract is only compatible with standard ERC20 tokens, and not tokens that charge fees on transfers or dynamically change ballance. It's up to the contract owner to ensure they only add supported tokens.",
    "version": 1
  },
  "storageLayout": {
    "storage": [
      {
        "astId": 115,
        "contract": "contracts/AcceleratingDistributor.sol:AcceleratingDistributor",
        "label": "_status",
        "offset": 0,
        "slot": "0",
        "type": "t_uint256"
      },
      {
        "astId": 7,
        "contract": "contracts/AcceleratingDistributor.sol:AcceleratingDistributor",
        "label": "_owner",
        "offset": 0,
        "slot": "1",
        "type": "t_address"
      },
      {
        "astId": 1486,
        "contract": "contracts/AcceleratingDistributor.sol:AcceleratingDistributor",
        "label": "stakingTokens",
        "offset": 0,
        "slot": "2",
        "type": "t_mapping(t_address,t_struct(StakingToken)1481_storage)"
      }
    ],
    "types": {
      "t_address": {
        "encoding": "inplace",
        "label": "address",
        "numberOfBytes": "20"
      },
      "t_bool": {
        "encoding": "inplace",
        "label": "bool",
        "numberOfBytes": "1"
      },
      "t_mapping(t_address,t_struct(StakingToken)1481_storage)": {
        "encoding": "mapping",
        "key": "t_address",
        "label": "mapping(address => struct AcceleratingDistributor.StakingToken)",
        "numberOfBytes": "32",
        "value": "t_struct(StakingToken)1481_storage"
      },
      "t_mapping(t_address,t_struct(UserDeposit)1461_storage)": {
        "encoding": "mapping",
        "key": "t_address",
        "label": "mapping(address => struct AcceleratingDistributor.UserDeposit)",
        "numberOfBytes": "32",
        "value": "t_struct(UserDeposit)1461_storage"
      },
      "t_struct(StakingToken)1481_storage": {
        "encoding": "inplace",
        "label": "struct AcceleratingDistributor.StakingToken",
        "members": [
          {
            "astId": 1463,
            "contract": "contracts/AcceleratingDistributor.sol:AcceleratingDistributor",
            "label": "enabled",
            "offset": 0,
            "slot": "0",
            "type": "t_bool"
          },
          {
            "astId": 1465,
            "contract": "contracts/AcceleratingDistributor.sol:AcceleratingDistributor",
            "label": "baseEmissionRate",
            "offset": 0,
            "slot": "1",
            "type": "t_uint256"
          },
          {
            "astId": 1467,
            "contract": "contracts/AcceleratingDistributor.sol:AcceleratingDistributor",
            "label": "maxMultiplier",
            "offset": 0,
            "slot": "2",
            "type": "t_uint256"
          },
          {
            "astId": 1469,
            "contract": "contracts/AcceleratingDistributor.sol:AcceleratingDistributor",
            "label": "secondsToMaxMultiplier",
            "offset": 0,
            "slot": "3",
            "type": "t_uint256"
          },
          {
            "astId": 1471,
            "contract": "contracts/AcceleratingDistributor.sol:AcceleratingDistributor",
            "label": "cumulativeStaked",
            "offset": 0,
            "slot": "4",
            "type": "t_uint256"
          },
          {
            "astId": 1473,
            "contract": "contracts/AcceleratingDistributor.sol:AcceleratingDistributor",
            "label": "rewardPerTokenStored",
            "offset": 0,
            "slot": "5",
            "type": "t_uint256"
          },
          {
            "astId": 1475,
            "contract": "contracts/AcceleratingDistributor.sol:AcceleratingDistributor",
            "label": "lastUpdateTime",
            "offset": 0,
            "slot": "6",
            "type": "t_uint256"
          },
          {
            "astId": 1480,
            "contract": "contracts/AcceleratingDistributor.sol:AcceleratingDistributor",
            "label": "stakingBalances",
            "offset": 0,
            "slot": "7",
            "type": "t_mapping(t_address,t_struct(UserDeposit)1461_storage)"
          }
        ],
        "numberOfBytes": "256"
      },
      "t_struct(UserDeposit)1461_storage": {
        "encoding": "inplace",
        "label": "struct AcceleratingDistributor.UserDeposit",
        "members": [
          {
            "astId": 1454,
            "contract": "contracts/AcceleratingDistributor.sol:AcceleratingDistributor",
            "label": "cumulativeBalance",
            "offset": 0,
            "slot": "0",
            "type": "t_uint256"
          },
          {
            "astId": 1456,
            "contract": "contracts/AcceleratingDistributor.sol:AcceleratingDistributor",
            "label": "averageDepositTime",
            "offset": 0,
            "slot": "1",
            "type": "t_uint256"
          },
          {
            "astId": 1458,
            "contract": "contracts/AcceleratingDistributor.sol:AcceleratingDistributor",
            "label": "rewardsAccumulatedPerToken",
            "offset": 0,
            "slot": "2",
            "type": "t_uint256"
          },
          {
            "astId": 1460,
            "contract": "contracts/AcceleratingDistributor.sol:AcceleratingDistributor",
            "label": "rewardsOutstanding",
            "offset": 0,
            "slot": "3",
            "type": "t_uint256"
          }
        ],
        "numberOfBytes": "128"
      },
      "t_uint256": {
        "encoding": "inplace",
        "label": "uint256",
        "numberOfBytes": "32"
      }
    }
  }
}